:020000040800F2
:1000000038050020010100080317000863140008E8
:100010000117000849010008F91D00080000000050
:100020000000000000000000000000006917000848
:100030008301000800000000651700086B17000826
:100040001B0100081B0100081B0100081B01000820
:100050001B0100081B0100081B0100081B01000810
:100060001B0100081B0100081B0100081B01000800
:100070001B0100081B0100081B0100081B010008F0
:100080004D0100081B0100081B0100081B010008AE
:100090001B0100081B0100081B0100081B010008D0
:1000A0001B0100081B0100081B0100081B010008C0
:1000B0001B0100081B0100081B0100081B010008B0
:1000C0001B0100081B0100081B0100081B010008A0
:1000D0001B0100081B010008951D00081B010008FA
:1000E0001B0100081B0100081B010008DFF80CD0F1
:1000F00000F018F8004800471B1E000838050020D3
:100100000648804706480047FEE7FEE7FEE7FEE7B1
:10011000FEE7FEE7FEE7FEE7FEE7FEE7E117000881
:10012000ED000008064C074D06E0E06840F00103D2
:1001300094E8070098471034AC42F6D3FFF7DAFF93
:10014000541E0008741E0008FEE70000014800F07D
:100150007DB80000F000002030B590F84050012438
:10016000AC40C56B6C60046863604368102B036827
:1001700003D099600068C26030BD9A600068C160B9
:1001800030BD704701680A6822F00E020A600168FB
:100190000A6822F001020A6090F84020C36B012136
:1001A00001FA02F25A6080F82110002180F8201034
:1001B0000846704710B590F821100024022903D09A
:1001C0000421816301243DE001680A6822F00E02E7
:1001D0000A6001680A6822F001020A601A4A01688E
:1001E000914201D1012121E0174A1432914201D1FB
:1001F00010211BE0144A2832914201D1891515E0E3
:10020000114A3C32914201D189140FE00E4A50321A
:10021000914202D14FF4803108E00B4A643291429E
:1002200002D14FF4801101E04FF08071064A083A84
:100230005160012180F82110002180F82010416BCD
:1002400001B18847204610BD080002402DE9F05F4B
:10025000C16B0C6801680B68D0F840C0042202FA38
:100260000CF2494DDFF824A1494E4A4FDFF828B17E
:10027000DFF828E122422CD05A072AD50A689206D4
:1002800003D40A6822F004020A600168A94201D17D
:10029000042219E0514501D1402215E0B14202D1BA
:1002A0004FF4806210E0B94202D14FF480420BE07B
:1002B000594502D14FF4802206E0714502D14FF436
:1002C000800201E04FF080622F4908394A60C16A1C
:1002D0003BE04FF0020808FA0CF818EA040F4FF060
:1002E00000094FF0010235D05FEA837832D50B6800
:1002F0009B0605D40B6823F00A030B6080F82120CD
:100300000168A94201D1022219E0514501D1202200
:1003100015E0B14202D14FF4007210E0B94202D1AF
:100320004FF400520BE0594502D14FF4003206E081
:10033000714502D14FF4001201E04FF000721249F2
:1003400008394A6080F82090816A00291AD0BDE8F7
:10035000F05F0847082505FA0CF5254212D01B0767
:1003600010D50B6823F00E030B6090F84010C36BA0
:1003700002FA01F15960826380F8212080F8209010
:10038000016BE2E7BDE8F09F080002401C0002405C
:100390003000024044000240580002406C0002401D
:1003A00030B548B308C8154914221944B1FBF2F11D
:1003B0008900C16312498163022141771A6843F6BB
:1003C000F0718A43D0E900142143D0E902452C435F
:1003D0002143046921434469214384692143114332
:1003E0001960002141628162C1620163416301229F
:1003F00042770177084630BD012030BDF8FFFDBFD0
:100400000000024070B5044690F820000025012845
:100410000CD0012084F8200094F821600020012EE7
:1004200006D084F820000225284670BD022070BD49
:10043000022684F82160A0632068066826F0010681
:1004400006602046FFF788FEE06A00282068016801
:1004500002D041F00E0106E021F0040101602068A5
:10046000016841F00A0101602068016841F0010162
:100470000160D9E72DE9F84FDFF890A100220AF1D9
:10048000040B144601274FF00F090BF1040E00BFB7
:100490000B6807FA04F52B40AB4274D1DFF870C14A
:1004A0004E68A6EB0C0866452BD00DDC032E34D02D
:1004B00005DC36B3012E19D0022E2FD11BE0112EF0
:1004C00016D0122E2AD119E0B8F5881F19D006DCF3
:1004D000B8F5803F15D0B8F5801F1FD111E0B8F5F1
:1004E000001F0ED0B8F5041F18D10AE0CA6815E045
:1004F000CA68121D12E0CA6808320FE0CA680C32DE
:100500000CE08A682AB1012A4FF0080203D0456145
:1005100004E0042202E0056100E00022FF2B01D884
:10052000064601E000F104064FEA840501D9A5F171
:100530002005D6F800C009FA05F82CEA080C02FAE2
:1005400005F54CEA050CC6F800C04D68ED0057D51E
:10055000304DAE6946F00106AE61AD6924F0030688
:1005600005F0010500952C4D06EB050CDCF8085054
:10057000A6074FEA167809FA08F6B543274EB042A7
:1005800002D1002610E03BE0254EB04201D1012609
:100590000AE0244EB04201D1022605E0224EB042CC
:1005A00001D1032600E0042606FA08F62E43CCF813
:1005B00008604D68DAF80060ED03554601D51E432A
:1005C00000E09E432E604D68DBF80060AD035D46A1
:1005D00001D51E4300E09E432E604D68DEF80060AA
:1005E000ED02754601D51E4300E09E432E604D6826
:1005F000AD020E4D2E6801D51E4300E09E432E60D5
:10060000641C102CFFF444AFBDE8F88F00040140D7
:1006100000001110001002400000014000080140DD
:10062000000C014000100140001401400C04014086
:10063000014880687047000000000020024881687F
:10064000027811448160704700000020074810B50F
:10065000016841F010010160032000F09DF80020C6
:1006600000F006F800F024F8002010BD0020024041
:1006700070B50D4D04464FF47A712878B1FBF0F057
:100680000A490968B1FBF0F000F02DFB48B9102CC5
:1006900007D200222146501E00F05EF800206C6058
:1006A00070BD012070BD0000000000200C00002083
:1006B000214808B5816941F001018161816901F03A
:1006C00001010091C16941F08051C161C06900F030
:1006D00080500090032000F05FF8002211466FF078
:1006E0000B0000F039F8002211466FF00A0000F00C
:1006F00033F8002211466FF0090000F02DF80022B7
:100700001146501F00F028F800221146101F00F07B
:1007100023F800221146901E00F01EF80022114618
:10072000501E00F019F80548416821F0E06141F0E1
:100730008061416008BD00000010024000000140DF
:1007400000F01F02012191404009800000F1E020EB
:10075000C0F8001170470000F0B40E4B1B680C4647
:10076000C3F30223C3F10705042D00D90425191D85
:10077000072901D2002300E0DB1E012606FA05F15D
:10078000491E214099409E40761E16403143F0BCE0
:1007900000F0B8BF0CED00E0064900F00702086861
:1007A0004FF6FF03184040EA0220034A1043086056
:1007B000704700000CED00E00000FA052DE9F0475D
:1007C000DFF83C8105460E46D8F8000000F007002F
:1007D000B0420CD2D8F8001021F007013143C8F81C
:1007E0000010D8F8000000F00700B04263D128786C
:1007F000444C800705D56068A96820F0F0000843E4
:1008000060602878C00745D06868012816D0216844
:10081000022816D0890700294DDA616821F003010A
:1008200001436160FFF704FF6968074641F28830C1
:1008300001290FD00229814619D027E021688903B8
:10084000E9E78901E7E700BFFFF7F2FEC11B494571
:1008500001D918E081466068C0F381000128F3D116
:1008600018E000BFFFF7E4FEC11B49450BD86068E4
:10087000C0F381000228F5D10CE000BFFFF7D8FEDD
:10088000C11B494502D90320BDE8F087606810F01C
:100890000C0FF3D1D8F80010404601F00701B14227
:1008A0000BD9016821F0070131430160006800F0B5
:1008B0000700B04201D00120E6E72878400705D5BF
:1008C0006068E96820F4E060084360602878000709
:1008D00006D56068296920F4605040EAC100606074
:1008E00000F03CF86168084AC1F30311515CC8404C
:1008F000064908600020FFF7BBFE0020C4E70000A7
:1009000000200240001002403C1E00080C000020A5
:1009100001480068704700000C00002004480549A9
:1009200000684968044AC1F30221515CC84070471D
:100930000C000020001002404C1E0008044805492D
:1009400000684968044AC1F3C221515CC84070473D
:100950000C000020001002404C1E000812A185B0BF
:100960000FC98DE80F0014A0144A00680490516864
:10097000134801F00C03042B10D0082B0ED1C1F347
:100980008343C9031DF803000AD5516804AAC1F3C3
:100990004041515C0A4A5043B0FBF1F005B070474A
:1009A00008494843FAE7000002030405060708095E
:1009B0000A0B0C0D0E0F1010010200000010024077
:1009C00000127A0000093D002DE9F84F0446007836
:1009D000B94DC00748D06868C0F38100012807D02E
:1009E0006868C0F38100022809D16868C00306D591
:1009F0002868800338D5606800286FD034E06068CC
:100A0000B0F5803F0BD010B1B0F5A02F11D0286801
:100A100020F480302860286820F4802002E02868D4
:100A200040F480302860606888B1FFF701FE064618
:100A300009E0286840F480202860F0E7FFF7F8FD1F
:100A4000801B642875D828688003F7D50CE0FFF771
:100A5000EFFD064605E000BFFFF7EAFD801B6428B6
:100A6000F0D828688003F7D42078944E80074FF0A0
:100A700001094FF000083BD5686810F00C0F07D053
:100A80006868C0F38100022809D16868C00306D4F1
:100A90002868800714D5206901281FD110E020693B
:100AA000B0B1C6F80090FFF7C3FD074605E000BFF0
:100AB000FFF7BEFDC01B0228C4D828688007F7D501
:100AC0002868616920F0F80040EAC10028600FE062
:100AD000C6F80080FFF7ACFD074606E0E9E000BF7E
:100AE000FFF7A6FDC01B022823D828688007F7D48B
:100AF000207800072CD57248A169D9B1C0F80090C0
:100B0000FFF796FD074604E0FFF792FDC01B0228A1
:100B10000FD8686A8007F7D56A484FF4FA51006821
:100B2000B0FBF1F0009000BF0098411E0091FAD296
:100B30000EE080E0C0F80080FFF77AFD074604E091
:100B4000FFF776FDC01B022875D8686A8007F7D4C6
:100B50002078400760D5E8690027C00008D4E8691C
:100B600040F08050E861E869012700F08050009073
:100B700055480168C90513D40168834641F4807162
:100B80000160FFF755FD824606E000BFFFF750FD0C
:100B9000A0EB0A0064284ED8DBF80000C005F5D5AC
:100BA000E06801280AD008B1052813D0286A20F08F
:100BB00001002862286A20F0040002E0286A40F060
:100BC00001002862E06841F2883B98B1FFF730FDF0
:100BD00082460BE0286A40F004002862EEE700BF7E
:100BE000FFF726FDA0EB0A0159455AD8286A80076D
:100BF000F6D50CE0FFF71CFD824605E0FFF718FD77
:100C0000A0EB0A0159454CD8286A8007F6D41FB1D9
:100C1000E86920F08050E861E06988B36968C1F351
:100C20008101022945D00228C6F8608004D0FFF770
:100C3000FFFC044638E034E0FFF7FAFC074604E026
:100C4000FFF7F6FCC01B02282BD828688001F7D4D8
:100C5000206AB0F5803F05D16868A16820F40030B3
:100C600008436860D4E908010843696821F47411F5
:100C700008436860C6F86090FFF7DAFC044606E0B7
:100C800015E000BFFFF7D4FC001B022809D8286834
:100C90008001F7D50BE000BFFFF7CAFC001B02285C
:100CA00002D90320BDE8F88F28688001F4D4002021
:100CB000F8E70120F6E70000001002400000424281
:100CC000800442420C000020007000404FF0E02100
:100CD0000428086903D020F004000861704740F040
:100CE0000400FAE7704710B5401EB0F1807F01D3D1
:100CF000012010BD4FF0E02460610F21601700F06B
:100D000001FD0020A06107202061002010BD10B56A
:100D1000FFF7E8FF10BD10B590F83C20012A25D060
:100D2000012280F83C20CA688C6822F44072224379
:100D30004C6822F4806222430C6822F40062224351
:100D40000C6922F4805222434C6922F4005222435F
:100D50008C6922F48042224322F40041026800237D
:100D60002143516480F83C30002010BD022010BDAA
:100D700030B590F83C20012A20D0012280F83C2098
:100D8000022380F83D3003685C6824F070045C60E6
:100D900003685C680D682C435C6003689C6824F001
:100DA00080049C6003689C6849680C439C6080F8E0
:100DB0003D20002180F83C10084630BD022030BDA7
:100DC00010B5040003D094F83D0010B107E00120F5
:100DD00010BD002084F83C00204600F00DF80220F1
:100DE00084F83D00211D206800F01EFD012084F8DC
:100DF0003D00002010BD000008B50C4A01680C48F9
:100E0000914207D1816941F400618161806900F4F8
:100E1000006009E0B1F1804F07D1C16941F00101E3
:100E2000C161C06900F00100009008BD002C0140C4
:100E30000010024070B5044690F83C00012817D01D
:100E4000012584F83C50022084F83D002068826827
:100E500022F0770222F47F4282600868502837D05F
:100E60000DDC202859D005DC88B3102841D151E091
:100E7000022070BD302853D040283AD13FE060288E
:100E80002ED070280BD0B0F5805F03D0B0F5005F96
:100E90002FD110E02068816821F0070115E0CB68B0
:100EA000D1E90121206800F000FD2168886840F048
:100EB000770088601DE0CB68D1E90121206800F04F
:100EC000F4FC2068816841F48041816011E01EE0FB
:100ED000CA684968206800F09DFD5021206806E03E
:100EE000CA684968206800F0A6FD6021206800F00B
:100EF000E6FC84F83D50002084F83C0070BDCA68D0
:100F00004968206800F086FD40212068EFE7002155
:100F10002068ECE710212068E9E720212068E6E757
:100F200030212068E3E700001FB5164A016802245B
:100F30001548914208D14FF47061CDE9001469461B
:100F40000394FFF797FA1FBDB1F1804FFBD14FF427
:100F50000041CDE9001469460394FFF78BFA08209D
:100F6000CDE90004694609480394FFF783FA08486D
:100F7000416821F4407141F0E06141F480714160C9
:100F80001FBD0000002C014000080140000C014082
:100F90000000014070B5044690F83C0001280DD0D7
:100FA000012584F83C50022084F83D0042B1042A17
:100FB0000AD0082A0CD00C2A11D10DE0022070BDF5
:100FC000206800F085FC0AE0206800F0A9FC06E03B
:100FD000206800F0D1FC02E0206800F0F9FC84F801
:100FE0003D50002084F83C0070BD10B5040003D0D3
:100FF00094F83D0010B107E0012010BD002084F8F6
:101000003C00204600F00CF8022084F83D00211D31
:10101000206800F009FC012084F83D00002010BD8C
:10102000704770B5044690F83C000D4601280DD07D
:10103000012684F83C60022084F83D0042B1042A75
:1010400018D0082A2AD00C2A4DD139E0022070BDD0
:10105000206800F03DFC2068816941F00801816151
:101060002068816921F004018161206881692A6911
:10107000114311E0206800F053FC2068816941F4BD
:10108000006181612068816921F48061816120684B
:1010900081692A6941EA0221816124E0206800F027
:1010A0006BFC2068C16941F00801C1612068C16919
:1010B00021F00401C1612068C1692A69114311E06E
:1010C000206800F085FC2068C16941F40061C161BD
:1010D0002068C16921F48061C1612068C1692A6901
:1010E00041EA0221C16184F83D60002084F83C009F
:1010F00070BD10B5040003D094F83D0010B107E0B6
:10110000012010BD002084F83C00204600F00CF8BF
:10111000022084F83D00211D206800F085FB01209D
:1011200084F83D00002010BD7047000010B5044653
:101130000068012200F0AEFB07492068884203D115
:10114000416C41F4004141642068016841F00101B3
:101150000160002010BD0000002C014070B5044665
:101160000068C16821F49071C1602068416921F074
:1011700001014161206841694FF00005490609D528
:10118000416921F040014161606B18B14563606BBA
:10119000FEF7F8FFE585202084F83A00002070BDB6
:1011A0007047000070B5026804461068D168536942
:1011B00010F00F0F51D003F0010501F49076354384
:1011C0005DD0C20705D0CA0503D5E26B42F001022B
:1011D000E263420705D5DA0703D0E26B42F0020270
:1011E000E263820705D5DA0703D0E26B42F004021E
:1011F000E263020705D5DA0703D0E26B42F008028A
:10120000E263E26B002A34D0800604D5880602D55A
:10121000204600F089FC20684069E16BC0F3801033
:1012200001F008010143204624D000F066FC20684C
:10123000416949061AD5416921F040014161606B5D
:10124000A0B11B494163606BFEF7B4FF002810D0CA
:10125000606B416BBDE87040084783060FD58B0675
:101260000DD52046BDE8704000F05EBC2046FFF77B
:1012700097FF70BDFFF794FF0020E06370BD030689
:1012800006D50B0604D52046BDE8704000F050BDE1
:101290004006F3D54806F1D5D168204621F040013B
:1012A000D160202184F8391000F0DAF870BD000018
:1012B0005B1A000870B5040004D094F839000025CA
:1012C00010B106E0012070BD84F83850204600F0CF
:1012D00023F8242084F839002068C16821F40051E3
:1012E000C160204600F06CFC2068016921F4904147
:1012F00001612068416921F02A0141612068C168CB
:1013000041F40051C160E563202084F8390084F87D
:101310003A00002070BD000070B506460068204904
:1013200086B0884239D11F48C16941F40031C1619A
:10133000C0691D4C00F4003004900420009002208D
:1013400001900320039069462046FFF793F800259B
:101350000820CDE90005694620460295FFF78AF886
:10136000134C1248C4E900058020C4E902502561ED
:101370006561A5612046E561FFF712F818B1722199
:101380000CA000F03AFD746300221146262066622C
:10139000FFF7E2F92620FFF7D3F906B070BD000091
:1013A0000044004000100240000801406C00024070
:1013B000F00000202E2E2F5372632F75736172740C
:1013C0002E630000F8B5044690F83A0020283CD17E
:1013D000C1B3BAB394F83800012836D0012084F89C
:1013E0003800A162A2850025E563222084F83A0036
:1013F000636B17489862636B1648D862636B164834
:101400001863606B134645630846666B21680246A5
:101410003046091DFEF7F6FF20680168416800911B
:1014200084F83850C16841F48071C1602068416916
:1014300041F0010141612068416941F04001416191
:101440000020F8BDFFE70120FBE70220F9E70000DC
:10145000B51A0008F11A00086B1A000870477047A7
:101460007047FEE7094808B5416941F00101416153
:101470004069002200F00100009011461020FFF7A3
:101480006BF9BDE808401020FFF75AB90010024080
:101490000D4808B5816941F020018161816901F041
:1014A00020010091816941F004018161816901F0AD
:1014B00004010091816941F008018161806900F0B7
:1014C0000800009008BD00000010024010B543481D
:1014D00094B04149016048210024C0E9011444F658
:1014E0002061C0E9031444618461FFF769FC18B10D
:1014F00043213BA000F081FC4FF480500E900EA9D8
:101500003648FFF797FC18B1492135A000F075FC6B
:101510003248FFF7EEFD18B14E2131A000F06DFC0E
:101520002E48FFF762FD18B153212DA000F065FC95
:10153000129412A929481394FFF71AFC18B15A21E2
:1015400027A000F05AFC6020CDE900040294039427
:10155000049405940022694620480694FFF761FD33
:1015600018B166211EA000F048FC042269461B4801
:10157000FFF757FD18B16B2119A000F03EFC0822BF
:10158000694616480094FFF705FD18B1712114A0B3
:1015900000F033FC0C2269461048FFF7FBFC18B141
:1015A00076210FA000F029FC0794089409944FF4C9
:1015B00000500A94CDE90B4007A908480D94FFF7A5
:1015C000AAFB18B1822106A000F017FC0348FFF720
:1015D000ABFC14B010BD0000002C01401000002036
:1015E0002E2E2F5372632F74696D2E63000000003E
:1015F00010B529488EB04FF08041016024210024AD
:10160000C0E9011444F62061C0E903148461FFF7C6
:10161000D7FB18B1972121A000F0EFFB4FF48050C9
:10162000079007A91C48FFF705FC18B19D211BA0D6
:1016300000F0E3FB1848FFF75CFD18B1A22117A0EA
:1016400000F0DBFB0B940BA913480C94FFF790FB05
:1016500018B1A92111A000F0D0FB6020CDE9000451
:101660000294002269460C480494FFF7DAFC18B192
:10167000B2210AA000F0C1FB042269460648FFF728
:10168000D0FC18B1B72105A000F0B7FB0248FFF766
:101690004BFC0EB010BD0000500000202E2E2F532A
:1016A00072632F74696D2E63000000000F4810B53F
:1016B0000D4901604FF41651416000218160042200
:1016C000C160C0E904128161C161FFF7F3FD18B187
:1016D000472107A000F091FB04491E22BDE81040FD
:1016E00020390248FFF76EBE00440040B0000020E1
:1016F0002E2E2F5372632F75736172742E63000048
:10170000FEE770470907090E002806DA00F00F000F
:1017100000F1E02080F8141D704700F1E02080F80F
:101720000014704710B500210C48FFF7FFFC04219E
:101730000A48FFF7FBFC08210848FFF7F7FC0C21DB
:101740000648FFF7F3FC00210548FFF7EFFCBDE872
:10175000104004210248FFF7E9BC000010000020FF
:101760005000002070477047704710B5FEF766FFC5
:10177000BDE81040FFF7CBBA30B58FB001210804A7
:10178000CDE900100024029402250491CDE9075010
:101790004FF4E01009906846FFF716F900B1FEE734
:1017A0000F20CDE90A054FF48060CDE90C400221FD
:1017B0000AA80E94FFF702F800B1FEE7FFF7A8F8B9
:1017C0004FF47A71B0FBF1F0FFF78DFA0420FFF7C8
:1017D0007DFA00221146501EFEF7BEFF0FB030BD4D
:1017E0000D48016841F00101016041680B4A114058
:1017F000416001680A4A11400160016821F48021BA
:101800000160416821F4FE0141604FF41F018160D5
:101810000449C00308607047001002400000FFF850
:10182000FFFFF6FE08ED00E0F0B50268164B174C1E
:10183000174D4FF08047984205D0B84203D0A042E0
:1018400001D0A84203D122F070064A683243984280
:1018500005D0B84203D0A04201D0A84203D122F45F
:101860004074CA68224322F080044A69224302601D
:101870008A68C2620A688262984201D1096901637A
:1018800001214161F0BD0000002C01400004004036
:101890000008004010B50123046A8B409C43046299
:1018A000036A8A401343036210BD10B5846842EA9C
:1018B000032224F47F440A432243826010BD8268DD
:1018C00022F070020A4342F0070181607047000075
:1018D00030B5026A22F001020262026A436884693A
:1018E00024F073050C682C4322F002058A682A4311
:1018F0000A4DA8420BD122F00805CA6823F44073B0
:101900002A434D6922F004021D438B692B43436037
:10191000846149684163026230BD0000002C0140CF
:1019200030B5026A22F010020262026A43688469DA
:101930000D6824F4E64444EA05248D6822F0200270
:1019400042EA05120B4DA8420ED1CD6822F080026A
:1019500042EA05124D6923F4406343EA85038D6929
:1019600022F0400243EA8503436084614968816351
:10197000026230BD002C014030B5026A22F4807250
:101980000262036A4268C46923F4007324F0730599
:101990000C682C438D6843EA05230C4DA8420ED1F8
:1019A000CD6823F4006343EA05234D6922F44052D5
:1019B00042EA05128D6923F4806342EA051242600F
:1019C000C4614968C163036230BD0000002C01405E
:1019D00030B5026A22F480520262046A4268C36926
:1019E0000D6823F4E64343EA05238D6824F400548C
:1019F00044EA0534064DA84204D14D6922F48042E0
:101A000042EA85124260C36149680164046230BDE4
:101A1000002C014010B5036A046A24F0010404623A
:101A2000846924F0F00444EA021423F00A020A4311
:101A30008461026210BD10B5036A23F010030362D3
:101A40008369046A23F4704343EA023224F0A0035A
:101A500043EA01118261016210BD10B5406A0021A4
:101A6000C185C184FFF79CFB10BD70B5446A206836
:101A7000406994F83910C0F3C0100025212904D121
:101A800018B1E584204600F046F82068406994F8D3
:101A90003A10C0F38010222904D118B1E585204600
:101AA00000F02BF8E06B40F01000E0632046FFF7F9
:101AB00077FB70BD10B50146406A09680968890660
:101AC00013D40021C1850168CA6822F48072CA60FB
:101AD00001684A6922F001024A6101684A6922F0FC
:101AE00040024A61202180F83A10FFF7B7FC10BD90
:101AF00010B5406AFFF7B3FC10BD0168CA6822F454
:101B00009072CA6001684A6922F001024A6120218C
:101B100080F83A1070470168CA6822F0C002CA60B3
:101B2000202180F83910704710B590F83A1022291A
:101B300001D0022010BD8168B1F5805F11D001692C
:101B4000002901681FD0496801F07F03816A4A1C9F
:101B500082620B70C18D491E0904090CC18518D021
:101B60002BE00269816A002A0268526805D0D2B26D
:101B70000A80816A491C8162ECE7C2F308020A808C
:101B8000816A891CF7E74A68816A4B1C83620A7084
:101B9000E0E70168CA6822F02002CA600168CA68EA
:101BA00022F48072CA6001684A6922F001024A6127
:101BB000202180F83A10FFF751FC002010BD0000F2
:101BC0002DE9F041044600680169E26821F44051C2
:101BD000114301612169A0680843616908432168D4
:101BE000CA6841F20C639A430243CA6020684169A3
:101BF000A26921F44071114341614C492068642578
:101C0000322688423CD1FEF799FE00EBC00101EB81
:101C1000001061688900B0FBF1F7FEF78FFE00EB62
:101C2000C00101EB00106168B0468900B0FBF1F023
:101C3000B0FBF5F06FF01801484307EB800106EBAD
:101C40000110B0FBF5F000F0F006FEF777FE00EBB8
:101C5000C00101EB001061688900B0FBF1F0B0FB3E
:101C6000F5F006EB0016FEF769FE00EBC00101EB94
:101C7000001061688900B0FBF1F7FEF75FFE3BE002
:101C8000FEF74CFE00EBC00101EB0010616889001B
:101C9000B0FBF1F7FEF742FE00EBC00101EB0010D4
:101CA0006168B0468900B0FBF1F0B0FBF5F06FF071
:101CB0001801484307EB800106EB0110B0FBF5F07B
:101CC00000F0F006FEF72AFE00EBC00101EB001069
:101CD00061688900B0FBF1F0B0FBF5F006EB00168F
:101CE000FEF71CFE00EBC00101EB001061688900EB
:101CF000B0FBF1F7FEF712FE00EBC00101EB0010A4
:101D000061688900B0FBF1F0B0FBF5F06FF01801ED
:101D1000484307EB800108EB0110B0FBF5F02168A8
:101D200000F00F0030448860BDE8F08100380140C9
:101D300090F83910212901D0022070478168B1F54F
:101D4000805F016A0BD04A1C026202680978516008
:101D5000C18C491E0904090CC1840ED017E0098802
:101D60000268C1F30801516001690029016A02D0CB
:101D7000491C0162ECE7891CFBE70168CA6822F094
:101D80008002CA600068C16841F04001C160002063
:101D900070470000154808B501684A6922F0010241
:101DA0004A6101680A6922F040020A61006801681C
:101DB000C943C90610D40168406800900B48FFF77A
:101DC000CDF90B4800684068C0F11E0080B20528BC
:101DD00002D10848FFF7C7FC1E2206490348FFF757
:101DE000F1FABDE808400148FFF7DCB9B000002077
:101DF000F000002090000020FEE7FEE702E008C8A7
:101E0000121F08C1002AFAD170477047002001E074
:101E100001C1121F002AFBD17047FEF717FCFFF724
:101E2000ABFCFFF735FBFFF71DFBFFF74FFBFFF7A1
:101E3000DFFBFFF73BFCFFF775FCFEE7000000004F
:101E4000000000000102030406070809000000006A
:101E500001020304741E00080000002010000000AE
:101E6000FC1D0008841E000810000020280500004A
:101E70000C1E00080100000010000000000000001F
:041E800000A24A046E
:04000005080000ED02
:00000001FF
